:020000040800F2
:10000000F81901206D03000875030008F91D0008A8
:10001000790300087B0300087D030008000000004E
:100020000000000000000000000000007F03000846
:100030008103000800000000F502000819570008BD
:10004000870300088703000887030008F5380008C5
:100050008703000887030008870300088703000858
:100060008703000887030008870300088703000848
:100070008703000887030008870300088703000838
:100080008703000887030008870300088703000828
:100090002D10000887030008870300088703000865
:1000A0008703000887030008870300088703000808
:1000B000C158000871590008655A000887030008F4
:1000C00087030008870300088703000887030008E8
:1000D00087030008316200088703000809630008ED
:1000E00087030008D133000887030008870300084E
:1000F00087030008870300088703000887030008B8
:10010000870300087D3B0008E95B000887030008BF
:100110008703000859610008B95C0008695D0008A0
:100120008703000887030008870300088703000887
:100130008703000887030008870300088703000877
:10014000D911000887030008870300088703000807
:10015000870300088703000887030008BD630008C1
:100160008703000887030008870300088703000847
:100170008703000887030008870300088703000837
:10018000870300088703000800F002F800F073F806
:100190000AA090E8000C82448344AAF10107DA45E2
:1001A00001D100F068F8AFF2090EBAE80F0013F0C1
:1001B000010F18BFFB1A43F001031847F498000021
:1001C000149900000A444FF0000C10F8013B13F0A2
:1001D000070408BF10F8014B1D1108BF10F8015BA0
:1001E000641E05D010F8016B641E01F8016BF9D193
:1001F00013F0080F1EBF10F8014BAD1C0C1B09D1EA
:100200006D1E58BF01F801CBFAD505E014F8016B5B
:1002100001F8016B6D1EF9D59142D6D370470000ED
:100220000023002400250026103A28BF78C1FBD8FF
:10023000520728BF30C148BF0B607047642900F0E7
:100240004B81782900F0AF81632900F05085732934
:1002500000F05585002070471FB509F0B3F800F095
:1002600021FE04000020002109F096F8401C606087
:100270001FBD10B510BD00F0F0FD1146FFF7ECFFFB
:1002800008F040FB00F020FE03B4FFF7F2FF03BCD0
:1002900006F0B5FB30BF72B6704762B6704780F3A8
:1002A00008887047EFF3108072B6704780F31088AB
:1002B0007047264C4FF6FF7525604FF0000484F31D
:1002C0000988234C4FF001052570224C4FF08055D2
:1002D000256062B6FEE730B41E4C4FF080552560B5
:1002E00030BC704730B41B4C4FF08055256030BC9B
:1002F000704700BF72B6EFF3098050B11EF0100FC7
:1003000008BF20ED108A203880E8F00F12490968F4
:10031000086000B5114880475DF804EB10481149AA
:100320000A7802700C4810490A680260106890E868
:10033000F00F20301EF0100F08BFB0EC108A80F3D1
:1003400009884EF0040E62B6704700BF22ED00E04F
:10035000C601002004ED00E0CC0100209129000836
:10036000BB010020BC010020D401002009488047C7
:1003700009480047FEE7FEE7FEE7FEE7FEE7FEE787
:10038000FEE7FEE7FEE7FEE704480549034A054BA2
:10039000704700003557000889010008F811012056
:1003A000F8190120F8110120704710B54C1084EAAB
:1003B000530404D54042C1F1000138BF491E1B421D
:1003C00004D55242C3F1000338BF5B1E00F098FB16
:1003D00014F0804F04D04042C1F1000138BF491EE3
:1003E00014F0004F04D05242C3F1000338BF5B1E2B
:1003F00010BD00000FB4044910B503AA029800F024
:1004000083FC10BC5DF814FB200000200FB41CB569
:10041000084B06AA7B4469460090059800F045FC0D
:1004200004460020694600F053FC20461CBC5DF8E1
:1004300014FB0000B908000070B504468569006827
:10044000C10601D5302600E02026C00707D070BDC8
:10045000D4E9012130469047206A401C20626D1E7D
:10046000F6D570BD70B5044685690078C00707D120
:1004700070BDD4E9012120209047206A401C2062F1
:100480006D1EF6D570BD70B50C460546012A05D027
:100490002878800600D5EA69002302E0012305E000
:1004A0005B1C934202D2E05C0028F9D1A869E618EF
:1004B000C01AA861286A184428622846FFF7BCFFC2
:1004C00004E0D5E9012114F8010B9047B442F8D3B8
:1004D0002846FFF7C7FF70BD2DE9F041064600240E
:1004E00010687529314616A510D0AFF3008000289A
:1004F00002DA404213A507E031688A0701D512A548
:1005000002E0490704D511A5012401E0AFF3008002
:1005100000210A2206F1240709E0B0FBF2FCB0FB3F
:10052000F2F302FB1C00303078541846491C0028B6
:10053000F3D123462A463046BDE8F04100F057BBD0
:10054000000000002D0000002B0000002000000033
:10055000F0B40D460188090502D5214C7C4402E027
:100560001F4C7C440E34002100F1240608E002F008
:100570000F071209E75D42EA03721B097754491C11
:1005800052EA0307F3D102780023120704D5702D35
:1005900006D009B1022311342246F0BC00F027BB7B
:1005A00001231034F8E770B504460D462146106863
:1005B000AFF30080024629462046BDE87040002384
:1005C000C6E7D21D22F00703D3E90023C0E7036882
:1005D000126843F0200303600823C3610023B7E7D8
:1005E000AE9400002DE9F05F894604464FF0000A02
:1005F000DFF874B1FB44C0F820A02046E1688847CA
:10060000002874D0252806D0D4E901219047206A1B
:10061000401C2062F1E700265F462046E1688847DB
:100620002028054607DB312D05D2781910F8200C5B
:1006300008B10643F1E7B00701D526F00406C4F877
:100640001CA00027C4F818A02A2D09D0284606F0BF
:10065000CFF938B304EB8708303DC8F8185019E0DB
:1006600059F8041B204604EB87029161E168884732
:10067000012F054618D1E069002820DA26F020066F
:100680001DE0D8F8180000EB800005EB4000303882
:10069000C8F818002046E1688847054606F0A8F922
:1006A0000028EED1012F0AD02E2D08D12046E16876
:1006B00088477F1C0546022F46F02006C4DBA06950
:1006C000002803DA404246F00106A061F00701D09D
:1006D00026F010066C2D0BD0682D09D04C2D39D08A
:1006E0006A2D35D0742D35D07A2D33D016E038E010
:1006F000E1682F4620468847B842054609D16C2F4D
:1007000026D04FF48060E1680643204688470546BE
:1007100004E06C2F1AD04FF4807006430DB3A5F19E
:100720004100192802D8203546F400664A46294679
:10073000204626604E46FFF781FD80B101280BD090
:10074000F61D26F0070000F1080956E74020E4E70F
:100750008020D8E70020D6E706F104094DE72846B7
:1007600052E7206ABDE8F09F3E94000070B506464F
:1007700000F0C2F90468054630460A22002100F064
:10078000D5FA2C6070BD30B505460B462A4613F8E5
:10079000014B12F8010B08B1A042F8D01CB100289F
:1007A00002D06D1CF1E7284630BD40EA010310B5C8
:1007B0009B070FD1042A0DD310C808C9121F9C42F1
:1007C000F8D020BA19BA884201D9012010BD4FF0E3
:1007D000FF3010BD1AB1D30703D0521C07E0002030
:1007E00010BD10F8013B11F8014B1B1B07D110F88D
:1007F000013B11F8014B1B1B01D1921EF1D1184690
:1008000010BD40EA010370B59B072ED14FF00136B1
:10081000042A2AD308C810C99D1B9D43121F15EA3C
:10082000C61517D0D8B2E1B2401A50EA056110D10E
:1008300098B2A1B2401A50EA05410AD123F07F4094
:1008400024F07F41401A50EA052102D1180EA0EB96
:10085000146070BDA342DBD018BA21BA884201D916
:10086000012070BD4FF0FF3070BD0AB9002070BD8F
:1008700010F8013B11F8014B63B1A3420AD1521E9B
:1008800008D010F8013B11F8014B1BB1A34201D174
:10089000521EEDD1181B70BD032A40F2308010F0BB
:1008A000030C00F0158011F8013BBCF1020F62440B
:1008B00098BF11F801CB00F8013B38BF11F8013B9C
:1008C000A2F1040298BF00F801CB38BF00F8013B49
:1008D00011F0030300F02580083AC0F0088051F8B9
:1008E000043B083A51F804CBA0E80810F5E7121DC4
:1008F0005CBF51F8043B40F8043BAFF30080D207E3
:1009000024BF11F8013B11F801CB48BF11F8012BAE
:1009100024BF00F8013B00F801CB48BF00F8012BD1
:10092000704710B5203AC0F00B80B1E81850203A5B
:10093000A0E81850B1E81850A0E81850BFF4F5AF7F
:100940005FEA027C24BFB1E81850A0E8185044BF09
:1009500018C918C0BDE810405FEA827C24BF51F876
:10096000043B40F8043B08BF7047D20728BF31F86A
:10097000023B48BF11F8012B28BF20F8023B48BFBB
:1009800000F8012B70474FF000020429C0F01280DC
:1009900010F0030C00F01B80CCF1040CBCF1020F32
:1009A00018BF00F8012BA8BF20F8022BA1EB0C0107
:1009B00000F00DB85FEAC17C24BF00F8012B00F8FD
:1009C000012B48BF00F8012B70474FF0000200B523
:1009D000134694469646203922BFA0E80C50A0E862
:1009E0000C50B1F12001BFF4F7AF090728BFA0E810
:1009F0000C5048BF0CC05DF804EB890028BF40F8DC
:100A0000042B08BF704748BF20F8022B11F0804F1D
:100A100018BF00F8012B704710B5044610F0030F03
:100A200008BF11F0030F40F015804FF0013E121F78
:100A3000C0F20E8051F8043BA3EB0E0C2CEA030C21
:100A40001CEACE1C08BF40F8043BF0D0A1F1040121
:100A500002F10402521E08DB11F8013B002B00F8E2
:100A6000013BF7D11146FFF78EFF204610BD000075
:100A70004FF0013C50F8042B51F8043B9A4221D12D
:100A8000A2EB0C03934313EACC1317D150F8042BB9
:100A900051F8043B9A4215D1A2EB0C03934313EA9D
:100AA000CC130BD150F8042B51F8043B9A4209D1D6
:100AB000A2EB0C03934313EACC13DBD04FF00000FE
:100AC000704700BFD01A01BAB1FA81F101F01801E4
:100AD00022FA01F0CB40C1F12001DBB2C0B2C01A52
:100AE0002CFA01F3D11A914311EAC311E6D17047F0
:100AF0007047704770477047004870479411012055
:100B000053EA020C00F069802DE9F04B4FF000062B
:100B1000002B1FBFB3FA83F503FA05F424FA05F698
:100B20005E4012BF1643B2FA82F502FA05F4C5F12F
:100B300020051EBF22FA05FC44EA0C04203556EAC3
:100B4000044C4FEA144418BF641C4FF000084FF0E7
:100B50000009904271EB030C39D3002919BFB1FA97
:100B600081F701FA07F6B0FA80F700FA07F6C7F145
:100B700020071EBF20FA07FC46EA0C062037B6FB0A
:100B8000F4FCA7EB0507103F07F01F0BCBF1200685
:100B90000CFA0BFB2CFA06F644BFB3460026202FB6
:100BA000A4BF5E464FF0000B5BEA060C08BF4FF097
:100BB000010B19EB0B09ABFB027C48EB0608C01BD1
:100BC00006FB02CC0BFB03CC71EB0C01C1E70B461F
:100BD000024641464846BDE8F08B13B54FF0000091
:100BE0004FF00001AFF30080BDE81C4070472DE9D5
:100BF000F0470D4699469246044600F124080168E4
:100C0000880604D5E06921F01001216000E0012090
:100C1000A84201DD471B00E00027A1697A1902EB19
:100C20000900081AA0612078C00602D42046FFF708
:100C300003FC002608E0D4E901211AF806009047D9
:100C4000206A401C761C20624E45F4DB2078C006EA
:100C50000AD52046FFF7F0FB06E0D4E90121302059
:100C60009047206A401C2062381EA7F10107F4DC7F
:100C700007E0D4E9012118F805009047206A401CDC
:100C80002062281EA5F10105F3DC2046FFF7EAFBF0
:100C90002078000602D50220BDE8F0870120FBE79E
:100CA00001694A1C02610878704700B58FB0CDE930
:100CB00001310021059105497944CDE90310114620
:100CC0006846FFF78FFC0FB000BD0000E5FFFFFF97
:100CD0000A6802F8010B0A60704710B5436913B146
:100CE000AFF3008001E0FFF7CEFB012010BD1278CA
:100CF00000F124010A7000224A700122EDE7116818
:100D00004FF0FF32E9E70000074B70B50D467B441A
:100D1000FFF7CBFF0446284600F09BF810B14FF0D8
:100D2000FF3070BD204670BD977700002DE9F04779
:100D300091460F4680460446002614F8015B2DB10B
:100D400000F030F80068405DC007F6D12B2D02D0CE
:100D50002D2D18D0641E4A463946204600F02AF848
:100D600027B13968A14201D1C7F800804FF00204D1
:100D700071050BD54042002803DDFFF7BDFE04607E
:100D8000A007BDE8F08746F48066E4E70028F8DABB
:100D9000FFF7B2FE04606FF00040F2E700487047D2
:100DA0009411012010B500F07DF8001D10BD00BFAA
:100DB000E98500002DE9F05F824615468B46002745
:100DC0000AF10104B9460078302801D09DB113E042
:100DD00014F8010B0127782803D0582801D045B119
:100DE0000AE00DB1102D07D1002714F8010B1025D2
:100DF00002E0082500E00A250026B0460EE005FBCB
:100E0000080005FB06F101271FFA80F801EB1046E8
:100E1000B6F5803F00D3B94614F8010B294600F01F
:100E200045F80028EBDABBF1000F05D00FB1641EC6
:100E300000E05446CBF80040B9F1000F06D0FFF7B0
:100E40005BFE02210160C81EBDE8F09F48EA064033
:100E5000FAE7007B00F0800070477546FFF79EFFC1
:100E6000AE4605006946534620F00700854618B097
:100E700020B5FFF789FABDE820404FF000064FF09B
:100E800000074FF000084FF0000B21F00701AC46BF
:100E9000ACE8C009ACE8C009ACE8C009ACE8C009DE
:100EA0008D46704700487047B41101203A2800D29F
:100EB000303820F02002412A01D3A2F137008842C5
:100EC00001D34FF0FF3070470446AFF30080204657
:100ED000FFF7DAF91CB505A103C9CDE90001082126
:100EE000684600F0BFF800201CBD000004000000B0
:100EF000000000001CB5044604A103C9CDE90001AF
:100F00000821684600F0AEF800201CBD0105000075
:100F10000000000010B58AB004460121084602F026
:100F200039F90121480602F045F94FF4C050089004
:100F300002208DF8240000208DF8260003208DF873
:100F4000250001208DF8270008A92E4800F0E6FEB4
:100F500009220B212B4800F029FF09220C212948E6
:100F600000F024FF00208DF81A008DF81B008DF88A
:100F70001C0001208DF81D0000208DF81E008DF84A
:100F80001F008DF816408DF8170006208DF8180008
:100F900005208DF819000C20ADF8140005A91A4899
:100FA00000F0C3F900208DF80E008DF80F0001202D
:100FB0008DF810000020ADF80400ADF80600ADF883
:100FC0000800ADF80A00ADF80C0001208DF8110002
:100FD00001A800F01DF9012202210B4800F09CF944
:100FE00014208DF8000001208DF8010000208DF8FC
:100FF000020001208DF80300684601F035F800205A
:101000000AB010BD00000240006400401CB505A1FC
:1010100003C9CDE900010821684600F023F800204B
:101020001CBD0000140000000000000000B585B0E9
:101030006A460021044800F002FA04A00199FFF773
:10104000D9F905B000BD00000064004043414E31B5
:1010500020526563766564204D7367203078252EB5
:1010600038580A00F0B585B007460D4600241848E8
:1010700000901848019004208DF8080000208DF899
:1010800009008DF80A5000BF05E0395D0DF10B0035
:101090000155601C84B2AC42F7DB69460E4800F093
:1010A00046FA0646002401E0601C84B231460A4834
:1010B00000F0D0FA18B940F6FF708442F4DB40F635
:1010C000FF70844202DB012005B0F0BD0020FBE789
:1010D0001234567899C804100064004010B58AB0E4
:1010E00004460121022002F055F801214FF0C060B2
:1010F00002F060F84FF44050089002208DF8240070
:1011000000208DF8260003208DF8250001208DF8A1
:10111000270008A92E4800F001FE09220C212C48C6
:1011200000F044FE09220D21294800F03FFE002076
:101130008DF81A008DF81B008DF81C0001208DF829
:101140001D0000208DF81E008DF81F008DF8164040
:101150008DF8170006208DF8180005208DF819006D
:101160000620ADF8140005A91A4800F0DEF80E209C
:101170008DF80E0000208DF80F0001208DF8100072
:101180000020ADF80400ADF80600ADF80800ADF899
:101190000A00ADF80C0001208DF8110001A800F044
:1011A00037F8012202210B4800F0B6F840208DF8F4
:1011B000000001208DF8010000208DF802000120C0
:1011C0008DF80300684600F04FFF00200AB010BD04
:1011D000000402400068004000B585B06A46002166
:1011E000044800F02CF904A00199FFF703F905B0B9
:1011F00000BD00000068004043414E32205265634C
:10120000766564204D7367203078252E38580A00A3
:1012100010B50021837A012202FA03F13D4A1268D7
:1012200042F001023B4B1A603A4A1C3212688A4370
:10123000384B1C331A60027BCAB9364A0C3212682A
:101240008A43344B0C331A604288C38842EA034312
:10125000304A4032847A42F834300288838842EA45
:1012600003432C4A4032847A02EBC4025360027B6F
:10127000012A19D1274A0C3212680A43254B0C3334
:101280001A604288038842EA0343224A4032847A41
:1012900042F83430C288838842EA03431D4A403210
:1012A000847A02EBC4025360C27A3AB9194A121D19
:1012B00012688A43174B1B1D1A6006E0154A121D5F
:1012C00012680A43134B1B1D1A60028932B9114A76
:1012D000143212688A430F4B14331A600289012AB0
:1012E00006D10C4A143212680A430A4B14331A60AE
:1012F000427B012A06D1074A1C3212680A43054B79
:101300001C331A60034A126822F00102014B1A6072
:1013100010BD0000006600401AB143690B434361F1
:1013200002E043698B434361704730B502460020B9
:101330000023146824F002041460146844F00104CB
:10134000146000E05B1C546804F001041CB94FF603
:10135000FF74A342F6D1546804F001040CB90020D4
:101360006CE08C79012C04D1146844F08004146082
:1013700003E0146824F080041460CC79012C04D1BB
:10138000146844F04004146003E0146824F040043E
:1013900014600C7A012C04D1146844F02004146009
:1013A00003E0146824F0200414604C7A012C04D16A
:1013B000146844F01004146003E0146824F010046E
:1013C00014608C7A012C04D1146844F00804146071
:1013D00003E0146824F008041460CC7A012C04D1D2
:1013E000146844F00404146003E0146824F0040456
:1013F00014608C78A407CD7844EA05640D7944EA3A
:1014000005444D7944EA05540D886D1E2C43D46182
:10141000146824F001041460002300E05B1C54688D
:1014200004F001041CB14FF6FF74A342F6D15468D6
:1014300004F001040CB1002000E0012030BD10B523
:1014400000F5D87303EB01131B6803F00403137258
:10145000137A53B900F5D87303EB01131B6840F2FC
:10146000FF7404EA5353136009E000F5D87303EBEB
:1014700001131B686FF0604404EAD303536000F566
:10148000D87303EB01131B6803F00203537200F5DA
:10149000D87303EB01135B6803F00F03937200F53D
:1014A000D87303EB01135B681B0AD37400F5D87380
:1014B00003EB01139B68D37200F5D87303EB0113A0
:1014C0009B681C0A147300F5D87303EB01139B6827
:1014D0001C0C547300F5D87303EB01139B681B0EAF
:1014E000937300F5D87303EB0113DB68D37300F536
:1014F000D87303EB0113DB681C0A147400F5D8736E
:1015000003EB0113DB681C0C547400F5D87303EB78
:101510000113DB681B0E937421B9C36843F02003E9
:10152000C36003E0036943F02003036110BD10B5FD
:1015300002460020936803F08063B3F1806F00D10E
:1015400010E0936803F00063B3F1006F01D1012054
:1015500008E0936803F08053B3F1805F01D102206B
:1015600000E00420042874D002F5C07303EB0013DC
:101570001B6803F0010402F5C07303EB00131C6049
:101580000B7A7BB94B7A0C8843EA445302F5C0745A
:1015900004EB00142468234302F5C07404EB001428
:1015A000236010E00B7A4C6843EAC4034C7A23436F
:1015B00002F5C07404EB00142468234302F5C074E0
:1015C00004EB001423608B7A03F00F038B7202F597
:1015D000C07303EB00135B6823F00F0402F5C073C4
:1015E00003EB00135C6002F5C07303EB00135B6850
:1015F0008C7A234302F5C07404EB001463608B7B88
:101600001C064B7B44EA03440B7B44EA0323CC7A5D
:10161000234302F5C07404EB0014A3608B7C1C060A
:101620004B7C44EA03440B7C44EA0323CC7B2343F6
:1016300002F5C07404EB0014E36002F5C07303EB21
:1016400000131B6843F0010402F5C07303EB0013A1
:101650001C6010BD10B50246002321B1012907D03E
:1016600002290FD109E090681D4C00EA04030BE049
:1016700090681C4C00EA040306E090681A4C00EAEB
:10168000040301E0002300BF00BF184C181BA34255
:1016900016D007DC83B16FF08060184470B1022867
:1016A00018D111E0B0F5007F10D0114C204448B1A2
:1016B000B0F5003F0ED10BE002230DE000230BE05C
:1016C000002309E0002307E0012305E0012303E0F4
:1016D000012301E0002300BF00BFD8B210BD00000D
:1016E00003000004000300080000031000010008CC
:1016F0000001FFF770B500254FF4803404E080202E
:1017000002F028FA00B103E02000A4F10104F6D1B0
:1017100000BF0CB9032070BD40F2FF5002F0F0F999
:101720002846F8E770B5044605E01648056805F058
:10173000450000B100E0F8E700BF042002F00AFA1B
:1017400020B1042002F0DCF9032070BD012002F07A
:1017500001FA20B1012002F0D3F90120F5E7094890
:1017600024380068A04201D01020EEE740F2FF507C
:1017700002F0C6F903482038006808210840C0B2CA
:10178000E3E70000342C014070B500264FF48035AB
:1017900005E01148046804F0450000B103E02800AA
:1017A000A5F10105F5D100BF15B104F0040028B181
:1017B0000326042002F0A4F9304670BD012002F097
:1017C000C9F918B10126012002F09AF940F2FF5040
:1017D00002F096F93046F0E7342C014010B505E0F0
:1017E0000B48046804F0450000B100E0F8E700BFD2
:1017F000042002F0AFF920B1042002F081F90320A7
:1018000010BD40F2FF5002F07BF90020F8E7000025
:10181000342C01402DE9F04105460E464FF00008FA
:1018200005E02048076807F0450000B100E0F8E750
:1018300000BF042002F08EF928B1042002F060F904
:101840000320BDE8F081012002F084F920B10120DD
:1018500002F056F90120F4E7124824380068A84243
:1018600001D01020EDE740F2FF5002F049F90D4899
:101870002038046804F4604018B9200C30804046D9
:10188000DFE704F4005008B11320DAE704F48040E5
:1018900008B11020D5E704F4004008B10F20D0E7CC
:1018A0004046CEE7342C014070B500264FF4803519
:1018B00005E00F48046804F0450000B103E028008B
:1018C000A5F10105F5D100BF15B104F0040028B160
:1018D0000326042002F014F9304670BD04F04000E5
:1018E00018B10026402002F00BF93046F5E7000061
:1018F000342C014021B1026842F00102026003E091
:10190000026822F00102026070470000016821F0C5
:10191000010101600021016041608160C1600161DD
:10192000212141614A49884204D13D21484A103A67
:1019300091608CE046491831884205D14FF47461BA
:10194000434A103A916082E041493031884205D1E2
:101950004FF474113E4A103A916078E03C494831A6
:10196000884205D14FF07461394A103A91606EE0B7
:1019700037496031884204D13649354A103AD1603E
:1019800065E033497831884204D13349304A103A0E
:10199000D1605CE02E499031884204D12F492C4A15
:1019A000103AD16053E02A49A831884205D14FF05E
:1019B0003D51274A103AD16049E02949884204D173
:1019C0003D21274A083A116041E0254918318842F3
:1019D00005D14FF47461224A083A116037E020497A
:1019E0003031884205D14FF474111D4A083A116014
:1019F0002DE01B494831884205D14FF07461184AE7
:101A0000083A116023E016496031884204D1114937
:101A1000134A121F11601AE011497831884204D12B
:101A20000D490F4A121F116011E00D499031884293
:101A300004D10A490A4A121F116008E00849A83176
:101A4000884204D14FF03D51054A121F1160704782
:101A5000106002403D000020400F002000003D20AB
:101A60001064024021B1026842F02002026003E0EB
:101A7000026822F0200202607047014600200A68D6
:101A800002F001020AB1012000E0002070470000CE
:101A900010B500220268134B1A40CC680B68234330
:101AA0004C6923438C692343CC6923430C6A234349
:101AB0004C6A23438C6A23434C6B23438C6B234334
:101AC0001A430260426922F00702D1E90B34234332
:101AD0001A4342610B6943604B6883608B68C36043
:101AE00010BD00003F801CF00149086070470000F5
:101AF000143C0140002123498279002A3AD00A4649
:101B0000126803689A430B461A600A1D126803683C
:101B10009A430B1D1A60027911440A6803681A433C
:101B20000A60184A0832126803689A43154B083352
:101B30001A601A1D126803689A43124B0C331A601C
:101B40004279102A0ED11A1F126803681A430D4BEE
:101B500008331A601A1D126803681A43094B0C33C4
:101B60001A600DE00749427911440A6803681A4374
:101B70000A6005E0027911440A6803689A430A6022
:101B800070470000003C01402DE9FC4107460D462E
:101B90000026002400200090019008205B49086086
:101BA00010204860402088600020C8604FF48060AA
:101BB0000861084602F01AF81020FFF7B3FD04464A
:101BC00014B12046BDE8FC815148008800044F490B
:101BD000086037204860402088600020C8604FF4CB
:101BE00080600861084602F001F83720FFF79AFD8F
:101BF00004460CB12046E5E74FF0FF304549086048
:101C000008204860302088600220C86000200861F9
:101C100001204861084601F083FF00203B4908602D
:101C200033204860402088600020C8604FF4806006
:101C30000861084601F0DAFF3320FFF773FD044620
:101C40000CB12046BEE70CE04FF4001001F082FF1B
:101C500038B1314800684DF82600761C022E00D3BA
:101C600007E02D484C38006840F22A6108400028FF
:101C7000EAD000BF082001F06DFF20B1082001F07C
:101C80003FFF04209EE7022001F064FF20B1022004
:101C900001F036FF022095E7202001F05BFF20B124
:101CA000202001F02DFF06208CE74FF4007001F09A
:101CB00051FF28B14FF4007001F022FF072081E7A7
:101CC00040F2FF5001F01CFF00980006009901F45B
:101CD0007F4140EA0120009901F47F0140EA112090
:101CE000009940EA1160686001980006019901F4CA
:101CF0007F4140EA0120019901F47F0140EA11206F
:101D0000019940EA1160286020465BE72826002000
:101D10002C0000203C260020802C0140F0B50A4613
:101D200000210023002400BF3DE0012505FA01F356
:101D3000156805EA03049C4234D105684F00032668
:101D4000BE40B543056015794E00B5400668354381
:101D500005601579012D02D01579022D16D18568FF
:101D60004F000326BE40B543856055794E00B5400F
:101D7000866835438560456801268E40B5434560D9
:101D8000456896798E40B6B235434560C5684F00C8
:101D90000326BE40B543C560D5794E00B540C66840
:101DA0003543C560491C1029BFD3F0BDF0B50023F1
:101DB00000244D07ED0E02FA05F3CE1000F12005C8
:101DC00055F826504E07F70E0F26BE40B543CF10EC
:101DD00000F1200646F82750CE1000F1200555F8F6
:101DE000265045EA0304CE1000F1200545F82640B0
:101DF000F0BD01837047000070B5002517480668E4
:101E0000314617A0FEF7F6FA1448001D0668314661
:101E100016A0FEF7EFFA114808300668314616A002
:101E2000FEF7E8FA0D4814300668314615A0FEF7B3
:101E3000E1FA0FE0681CC5B21548006808B9012036
:101E400000E0002012490860002400E0641C1148F2
:101E50008442FBD3052DEDDB70BD000028ED00E0D2
:101E6000434653523A2538580D0A0000484653520B
:101E70003A2538580D0A0000444653523A2538583E
:101E80000D0A0000414653523A2538580D0A000009
:101E9000A4024342FFFF1F001CB50446002001902E
:101EA0000090224800880004214908600D20486005
:101EB000402088600020C8604FF4806008610846B8
:101EC00001F094FE1B480068009002E01948006889
:101ED0000090009800F045000028F7D0012001F0A4
:101EE00039FE20B1012001F00BFE01201CBD0420B1
:101EF00001F030FE20B1042001F002FE0320F5E7DE
:101F00000C48243800680D2801D01020EEE740F27C
:101F1000FF5001F0F5FD0748203800680190019856
:101F2000C0F3432020700020E0E700002C000020D8
:101F300028260020342C01401CB50121202001F06E
:101F400029F94FF49E50009000208DF804000320E2
:101F50008DF8050001208DF8070069460148FFF75C
:101F6000DDFE1CBD001402401CB50121712001F0F2
:101F700011F91820009001208DF8040000208DF840
:101F8000060003208DF8050001208DF80700694642
:101F90000F48FFF7C3FE18210D48FFF72AFF4FF443
:101FA0000070009069460B48FFF7B8FE4FF40071CF
:101FB0000848FFF71EFF4FF400600090694606488E
:101FC000FFF7ACFE4FF400610348FFF712FF1CBDA2
:101FD0000010024000180240001402403EB541F6D5
:101FE000FF740121080701F0E5F8012001F0CCF8A9
:101FF000002001F039FB45F25311884231D0012015
:1020000001F0ACF904E0601C84B20A2005F078F914
:10201000412001F083F90028F5D00CB901203EBD24
:102020004FF4807001F0B6F9012001F0ADF97F2086
:102030000190FF20029000200090684601F0E2FA33
:10204000002338223B21172001F00AFC0623052239
:1020500011460E2001F0F2FB45F25311002001F071
:10206000EBFC0020DBE7000070B5002100230F220D
:10207000C4781CB3174C246804F4E064C4F5E0642D
:10208000C4F30721C1F10404E3B20A4144789C403F
:10209000E1B28478144021430C07210E0E4C0578E0
:1020A0006155047804F01F050124AC4005786D11DA
:1020B000AD0005F1E025C5F8004109E0047804F021
:1020C0001F050124AC40054D0678761145F82640E1
:1020D00070BD00000CED00E000E400E080E100E0F5
:1020E00002490143024A1160704700000000FA05EE
:1020F0000CED00E010B500F015F800F091FD00F0D7
:10210000B9FD00F0D9FD00F05BFD00F01BFD00F013
:102110006DFE00F097FE00F00FFE00F035FE00F0BF
:1021200002F810BD7047704706480078012808D1B2
:1021300005480078FF2804D203480078401C024973
:1021400008707047C6010020B901002010B50024B6
:102150001A480078012830D1FEF7A4F80446184840
:10216000007820B116480078401E154908701448C0
:102170000078F8B913480078E0B900F0C5FE1248BD
:102180001249097850F82100114908600F48007879
:102190001049097888420DD00D480068806B401CBA
:1021A0000B49096888630C480068401C0A490860AC
:1021B000FEF798F82046FEF779F810BDC60100201A
:1021C000B9010020BA010020B40B0120BC0100209D
:1021D000D4010020BB010020A001002010B5002484
:1021E0000F48007801281AD1FEF75CF804460D4824
:1021F000007888B90C480078FF280DD20A4800788A
:10220000401C0949087008460078012804DD08468A
:10221000017806A0FEF7EEF82046FEF747F810BD5D
:10222000C6010020B9010020BA0100206E73743A83
:1022300025640D0A0000000010B500241348007842
:10224000012821D1FEF72EF8044611480078C0B1CC
:102250000F480078401E0E4908700846007860B9A3
:102260000C48007828B92046FEF720F800F012FE4E
:102270000AE02046FEF71AF806E02046FEF716F8B8
:1022800002E02046FEF712F810BD0000C601002053
:10229000BA010020B901002070B50546002610489B
:1022A000007808B1002070BDFDF7FCFF06460D4820
:1022B0000468006820B10B4800684068094908605C
:1022C0003046FDF7F3FF4CB103202070258100203C
:1022D000606005A06061204600F025FC2046E2E732
:1022E000B9010020A40100203F00000010B50B48F8
:1022F000007890B900F008FE094800780949087094
:1023000009480749097850F821000849086008463B
:10231000006807490860FDF7CCFF10BDC60100202A
:10232000BC010020BB010020B40B0120D40100201F
:10233000CC01002010B50024022000F02BFBFDF79B
:10234000B1FF044600200B4908602046FDF7AEFFB0
:10235000142000F01FFBFDF7A5FF044605480068A8
:10236000054908600120054908702046FDF79EFFD9
:1023700010BD0000C8010020B0010020B8010020FD
:10238000704700002DE9FE4F06460F4690461C465A
:102390004FF00009FDF786FF81461F48007828B1FD
:1023A0004846FDF783FF3C20BDE8FE8F1B4850F8F0
:1023B000240060BB0120194941F824004846FDF77C
:1023C00075FF002342463946304600F0B5F9824693
:1023D000002000900190034602465146029020469C
:1023E00000F0A8FD054635B90D48007801280CD14C
:1023F00000F050FD09E0FDF755FF81460020074938
:1024000041F824004846FDF751FF2846CCE74846EE
:10241000FDF74CFF2820C7E7B9010020B40B0120CD
:10242000C60100202DE9F04F85B081468A469346CB
:102430001C46DDE90F78129D00200390FDF732FF66
:1024400003902348007830B10398FDF72FFF3C201C
:1024500005B0BDE8F08F1F4850F8240088BB01206C
:102460001C4941F824000398FDF720FF2A46414605
:10247000384600F07BFE2B465A465146484600F04F
:102480005BF904901198CDE9008002953A46204608
:102490000E9B049900F04EFD064636B90E480078B2
:1024A00001280CD100F0F6FC09E0FDF7FBFE0390DB
:1024B0000020084941F824000398FDF7F7FE304654
:1024C000C6E7FFE70398FDF7F1FE2820C0E700000C
:1024D000B9010020B40B0120C601002070470000A4
:1024E0002DE9F041054600274748007810B140200B
:1024F000BDE8F0813F2D01D13E20F9E7FDF7D2FE86
:102500000746FF2D03D14148006890F832504048FB
:1025100050F8254024B93846FDF7C8FE4320E7E7C8
:10252000012C04D13846FDF7C1FE3D20E0E714F848
:10253000340F3849085C617888432178354A505413
:1025400014F834091146085C30B994F83610324852
:102550000078884330490870E06918B12046E16985
:1025600000F0CCFA666A16B1304600F017FB002086
:10257000E06284F8300084F8310028480078FF28B1
:1025800004D226480078401C244908703846FDF7DC
:102590008DFE00F0B2FAFDF785FE07461F48007871
:1025A00020B11E480078401E1C490870204600F0EB
:1025B00041F81B480078401E194908700020144952
:1025C00041F82500A06930B900206169886115498A
:1025D0006069086005E0D4E905014861D4E90510A7
:1025E00088611148006860610F4804600FA0E064D2
:1025F0003846FDF75BFE0E480078012801D100F057
:1026000049FC002074E70000B9010020CC01002043
:10261000B40B0120BE010020BD010020BA01002042
:10262000C7010020D8010020D00100203F00000099
:10263000C6010020704770472DE9F04106460F465D
:1026400014464FF000081548007818B11220207089
:10265000BDE8F081FDF726FE8046FF2E03D110482D
:10266000006890F832600F4850F826502DB9404667
:10267000FDF71CFE43202070EAE7012D05D14046FE
:10268000FDF714FE43202070E2E7EF644046FDF7BB
:102690000DFE0020207000BFDAE70000B901002025
:1026A000CC010020B40B0120704770472DE9F047A2
:1026B00007460D464FF0000A002028606860FDF7CD
:1026C000F1FD8246FF2F03D11948006890F832705F
:1026D000184850F827402CB95046FDF7E7FD432035
:1026E000BDE8F087012C04D15046FDF7DFFD432003
:1026F000F6E7207C00F0010020B95046FDF7D6FD3A
:102700004520EDE70026D4F80C90D4F80880504618
:10271000FDF7CCFD00E0761C58F8041B0029FAD028
:10272000B0002860A9EB0600800068600020D7E7B1
:10273000CC010020B40B012070B5044610460026E1
:10274000051F28462E604FF48056051F28462E6030
:102750001526051F28462E601426051F28462E60C4
:102760001326051F28462E601226051F28462E60B8
:102770001126051F28462E601026051F28462E60AC
:102780000926051F28462E600826051F28462E60AC
:102790000726051F28462E600626051F28462E60A0
:1027A0000526051F28462E600426051F28462E6094
:1027B0000326051F28462E600226051F28462E6088
:1027C0000126051F28462E600026051F28462E607C
:1027D0004FF080750560051F28462C60414E051F8F
:1027E00028462E604FF01236051F28462E604FF007
:1027F0000336051F28462E604FF00236051F284677
:102800002E607610051F28462E60051F2846296079
:102810003126051F28462E603026051F28462E60CB
:102820002926051F28462E602826051F28462E60CB
:102830002726051F28462E602626051F28462E60BF
:102840002526051F28462E602426051F28462E60B3
:102850002326051F28462E602226051F28462E60A7
:102860002126051F28462E602026051F28462E609B
:102870001926051F28462E601826051F28462E609B
:102880001726051F28462E601626051F28462E608F
:102890004FF01136051F28462E604FF01036051FE9
:1028A00028462E604FF00936051F28462E604FF04F
:1028B0000836051F28462E604FF00736051F2846AC
:1028C0002E604FF00636051F28462E604FF0053665
:1028D000051F28462E604FF00436051F28462E603F
:1028E00070BD0000913000082DE9F04105464FF021
:1028F0000008FDF7D7FC8046FF2D05D12048006871
:1029000090F83250012608E01D48006890F8320027
:10291000A84201D1012600E000261A4850F82540BF
:102920002CB94046FDF7C2FC4820BDE8F081012CDF
:1029300004D14046FDF7BAFC4320F6E794F8347022
:102940001148C05D94F8351088430F49C8550846B2
:10295000C05D30B994F836100C48007888430B49B4
:10296000087094F8300040F0080084F830004046C9
:10297000FDF79CFC012E01D100F08CFA0020D4E779
:10298000CC010020B40B0120BE010020BD010020BD
:102990007047000070B5054600261748007800B162
:1029A00070BD1648007800B1FAE71DB3FDF77AFC58
:1029B00006461348006890F834401248005D1049FC
:1029C000096891F8351088430E4908550846005D9E
:1029D00040B90B48006890F836100B4800788843DF
:1029E0000949087006480068C5623046FDF75EFC7C
:1029F00000F050FA00BFD3E7B9010020BA0100206F
:102A0000CC010020BE010020BD01002070B50026D1
:102A100000F072F8FDF746FC064631480068401C9D
:102A20002F4908603046FDF741FC2E480078012808
:102A300053D12D48007820B1012804D0022809D1B3
:102A400003E001250BE0002509E0012501202649CE
:102A5000087004E0012500202349087000BF00BF72
:102A600005B970BD2148046833E0FDF71BFC06463C
:102A7000E06A50B3E06A401EE062E06A28BB94F866
:102A8000300000F0370040B114F8300F00F0C800FB
:102A9000207001206070303C02E0002084F831009A
:102AA00094F8300000F0080078B93434A078104968
:102AB000097808430E49087020780E49085C61784F
:102AC000084314F834190B4A505464693046FDF732
:102AD000EDFB94F832003F28C7D100BFC1E70000EA
:102AE000E8010020C6010020DC010020D801002000
:102AF000BD010020BE0100207047704710B590F85E
:102B0000342001F10B039B5C90F83540A34301F1A5
:102B10000B04A35423469B5C23B98B7A90F8364070
:102B2000A3438B7210BD014600228A72002005E08B
:102B3000002301F10B021354421CD0B20828F7D332
:102B4000704700002DE9F0415021114800F044F990
:102B500000250DE0681C86B20D4800EB051400EB63
:102B600006170020207067600AA0E060681C85B22C
:102B7000042DEFD3064800EB0514002020706060A0
:102B800004A0E060024804490860BDE8F08100004C
:102B9000640701203F000000A801002030B5014675
:102BA0004A6808682AB9CC68606028B10025456089
:102BB00002E0106000B142608B6800255D6230BDAC
:102BC00070B54FF4B471134800F006F9002411E019
:102BD000601C85B204EB44000E4901EBC00305EB19
:102BE000450001EBC006002018705E600AA0586125
:102BF000601C84B20E2CEBD304EB4400054901EBBE
:102C0000C00300201870586003A0586108460349AB
:102C1000086070BDFC0501203F000000A4010020F9
:102C200000200A4908600A4908700A4908700A49E0
:102C300008700A4908700A4908600A4908600A4988
:102C400008600A4908600A4908707047E8010020D6
:102C5000B9010020BA010020C7010020C6010020F0
:102C6000A0010020C8010020B4010020B001002014
:102C7000B801002000210A4A1170002004E0002160
:102C8000084A1154411CC8B20828F8D30021064A4A
:102C90001170064A1170064A1160064A11607047A9
:102CA000BD010020BE010020BB010020BC010020AE
:102CB000D4010020CC01002070B54FF47C7119487C
:102CC00000F08AF84FF48071174800F085F800246E
:102CD00013E0601CC5B2C4EBC40000EB4000114916
:102CE00001EB8003C5EBC50000EB400001EB800663
:102CF0005E610EA0D864601CC4B20B2CE9D3C4EB97
:102D0000C40000EB4000074901EB8003002058613C
:102D100006A0D864002006490860024805490860FA
:102D200070BD0000B40C0120B40B01203F00000076
:102D3000D8010020D001002000B587B00320002179
:102D400080220A4BCDE90132CDE903104FF6FF7026
:102D50003F23074A00900748FFF764FB06AA06A135
:102D60003F20FFF769FC07B000BD0000B409012057
:102D7000B00B01206930000875432F4F532D49498E
:102D80002049646C6500000000B587B00320002175
:102D900080220A4BCDE90132CDE903104FF6FE70D7
:102DA0003E23074A00900748FFF73CFB06AA06A10E
:102DB0003E20FFF741FC07B000BD0000B407012032
:102DC000B0090120A930000875432F4F532D494900
:102DD000205374617400000004E0002200F8012B0D
:102DE0004A1E91B20029F8D17047000070B57821D1
:102DF0001148FFF7F1FF00240EE004EB44000E49F8
:102E000001EBC005601C00EB400001EBC0006860F6
:102E10000AA06861601C84B2042CEED304EB440069
:102E2000054901EBC0050020686004A06861084600
:102E30000349086070BD0000A41001203F0000009D
:102E4000E00100202DE9F04178211048FFF7C4FF90
:102E500000240DE0601C86B204EB44000B4901EB3A
:102E6000C00506EB460001EBC0072F60601C84B272
:102E7000042CEFD304EB4400044901EBC00500200F
:102E80002860084602490860BDE8F0811C11012055
:102E9000E401002010B50024FDF704FA04461348AD
:102EA0000078F8B912480078E0B900F02DF8114820
:102EB0001149097850F82100104908600E4800783F
:102EC0000F49097888420DD00C480068806B401C7F
:102ED0000A49096888630B480068401C0949086072
:102EE000FDF7F9F92046FDF7E1F910BDB901002021
:102EF000BA010020B40B0120BC010020D401002045
:102F0000BB010020A00100200649074A1278885C16
:102F10000649095C034A515C01EBC001044A117087
:102F2000704700000E990008BD010020BE0100207E
:102F3000BC0100202DE9F84F05460F469046994602
:102F4000DDE90AAB00200090FDF7ACF900903F48A6
:102F50000468002C74D0183454F8040C3B49086001
:102F60000098FDF7A3F944F8187CA5760020207698
:102F70006076606144F814BC44F80CAC44F8108CE2
:102F80000C9824F8080C24F8069C0020E077E81040
:102F9000207705F00700E076217F01208840A077A8
:102FA000E17E01208840607700206060E060A060E2
:102FB0002062A0626062E062206325A06063183C2A
:102FC000002606E0002104F1500040F82610701C95
:102FD000C6B2002EF6D02046FFF7D2F92046FFF702
:102FE0007DFAFDF75FF900901A4840F825401A482D
:102FF000006860610020A0611748006810B11648A1
:1030000000688461144804603434A0781349097856
:1030100008431249087020781149085C6178084318
:1030200014F834190E4A50540E480078401C0D49CB
:1030300008700098FDF73AF90020BDE8F88FFFE727
:103040000098FDF733F94220F7E70000D001002097
:103050003F000000B40B0120D8010020BD0100207A
:10306000BE010020C7010020002400BF00BFFDF703
:1030700019F9044605480068401C044908602046C8
:10308000FDF714F9FFF7D7FAF1E70000C8010020B7
:1030900010B504480068FFF707FBFF20FFF720FA90
:1030A00010BD0000CC010020002400BF02E0282059
:1030B000FFF770FC194800780028F8D0184800681D
:1030C0006421B0FBF1F0164908600846006828B991
:1030D000002014490870FF20FFF706FC00BFFDF731
:1030E000E1F80446104800681049086000200E49C5
:1030F00008602046FDF7DAF80C48006808490968BE
:10310000B0FBF1F0C0F1640006490870FFF7CDFA9A
:1031100000F00EF81420FFF73DFCE0E7B8010020B6
:10312000B0010020AC010020C8010020B401002043
:103130007CB5002514E069462846FFF7B7FA064635
:1031400066B9094850F8254044B1012C06D0D4E9AD
:10315000020100EB810060640198A064681CC5B2A4
:103160003F2DE8D97CBD0000B40B012002F0010323
:1031700043B102F002032BB102E0491E002308C054
:103180000029FAD170470000014908627047000029
:1031900000000E4229B1064A12680243044B1A602D
:1031A00004E0034A12688243014B1A607047000032
:1031B0003038024029B1064A12680243044B1A60B3
:1031C00004E0034A12688243014B1A607047000012
:1031D0004038024029B1064A12680243044B1A6083
:1031E00004E0034A12688243014B1A6070470000F2
:1031F0002038024029B1064A12680243044B1A6083
:1032000004E0034A12688243014B1A6070470000D1
:103210004438024029B1064A12680243044B1A603E
:1032200004E0034A12688243014B1A6070470000B1
:1032300024380240F0B50021002200240225002697
:103240000223324F3F6807F00C0121B1042905D059
:10325000082937D105E02E4F076036E02D4F076073
:1032600033E02A4F3F1F3F68C7F38056274F3F1F69
:103270003F6807F03F036EB1264FB7FBF3F7DFF867
:103280008CC0ACF1040CDCF800C0CCF3881C07FB4C
:103290000CF40CE01E4FB7FBF3F7DFF870C0ACF195
:1032A000040CDCF800C0CCF3881C07FB0CF4174FAF
:1032B0003F1F3F68C7F301477F1C7D00B4FBF5F754
:1032C000076002E0124F076000BF00BF0F4F3F686A
:1032D00007F0F0010909104F7A5C0768D740476092
:1032E0000A4F3F6807F4E051890A0B4F7A5C476840
:1032F000D7408760054F3F6807F46041490B064F90
:103300007A5C4768D740C760F0BD000008380240CB
:103310000024F40000127A00EC01002010B50146F0
:103320000022002300204A11012A02D10A4C2368FE
:1033300008E0022A03D1084C7034236802E0064CEE
:103340007434236801F01F02012494401C400CB126
:10335000012000E0002010BD003802400021094A91
:1033600011701170012802D0042808D103E0012156
:10337000044A117004E00521024A117000E000BF08
:1033800000BF704770380240014908607047000074
:103390003C0E4742002100F44072B2F5407F08D154
:1033A000094A116821F4F811084A02401143064AFB
:1033B0001160054A68321268C0F30B031A43024BCE
:1033C00068331A607047000008380240FFFCFF0FA6
:1033D00010B5FEF7A9FE4FF4807000F0A5F80128A3
:1033E00005D1000200F02AF804A0FDF703F84FF41D
:1033F0000030FEF779FBFEF7A9FE10BD414C4152AB
:103400004D2041210D0A0000014600BF080900EBD4
:103410008000420001F00F001044C0B27047014626
:10342000002204E0501CC2B2A1F10A00C1B20A2974
:10343000F8DA100741EA10607047000081B241F0ED
:103440008001044A126802F0800262EA0101014A26
:10345000116070470C280040002101098AB242F037
:103460008002044B1B6803F0800363EA0202014BF5
:103470001A6070470C28004008B500220092002016
:103480000021104A126802F04002CAB9421E0D4BD8
:103490001A6000BF0B4A126802F04001009A521CE9
:1034A0000092009AB2F5803F01D00029F2D0054A7F
:1034B000126802F040020AB1012002E0002000E0A0
:1034C000012008BD0C2800400348006820F080005F
:1034D00001490860704700000C28004070B506469E
:1034E0000C4600250E4800680E4900EA0105280C2C
:1034F000E070C5F30420607005F03F00A070C5F3D4
:10350000423020705EB9E078FFF77EFFE0706078AF
:10351000FFF77AFF6070A078FFF776FFA07070BDAC
:10352000042800403FFFFF0010B5014600200022A4
:10353000054B1B68054C03EA040202EA01030BB1C8
:10354000012000E0002010BD0C2800407F3F01005A
:1035500070B506460C4600250F4800680F4900EA82
:103560000105C5F305402070C5F30620607005F025
:103570007F00A07005F48000000CE0705EB9207838
:10358000FFF742FF20706078FFF73EFF6070A07881
:10359000FFF73AFFA07070BD002800407F7F7F00DA
:1035A000CA22174B1A6053221A6091B1144A1C3A6E
:1035B000126820F004031A43114B1C3B1A60104A96
:1035C0001C32126800F004031A430D4B1C331A60BE
:1035D00011E00B4A1C3A126820F004039A43084B8E
:1035E0001C3B1A60064A1C32126800F004039A431E
:1035F000034B1C331A60FF22014B1A607047000016
:103600002428004030B504460025CA20154908602A
:1036100053200860FFF730FF00B91DE011481C3847
:10362000006820F040000F491C3908600846006817
:10363000216808430B491C3908600A491439A068FD
:10364000086008460068A18840EA0140054914392D
:103650000860FFF739FF0125FF200249086028466E
:1036600030BD00002428004008B50146002000902D
:1036700004480090009800EB8100009000980068DA
:1036800008BD0000502800402DE9F04105460C46D9
:10369000002600274DB9607800F01000102804D1F2
:1036A000607820F010000A30607005B908E060789A
:1036B000FFF7AAFE0646A078FFF7A6FE064600BF63
:1036C00055B1E0780004617840EA0120A178084310
:1036D000217840EA413611E0E078FFF7A0FE4FEA9A
:1036E00000486078FFF79BFE48EA0028A078FFF7C3
:1036F00096FE48EA0008207848EA4036CA20124977
:10370000086053200860FFF7B7FE08B9002714E0EF
:103710000E4830400C4920390860FFF7D5FE0A48B2
:103720001C38006800F0200030B900F001F908B939
:10373000002702E0012700E00127FF20024908607E
:103740003846BDE8F0810000242800403FFFFF001C
:103750002DE9F04105460C46002600274DB92E48BC
:10376000006800F0400000B102E00020E07000BFFF
:103770000DE02948006800F0400020B12078FFF7F4
:1037800043FE064602E00020E07000BF00BF55B1D6
:1037900020780004617840EA0120A1780843E178AC
:1037A00040EA014611E02078FFF739FE4FEA004871
:1037B0006078FFF734FE48EA0028A078FFF72FFE74
:1037C00048EA0008E07848EA0046CA2012491C315D
:1037D000086053200860FFF74FFE08B9002713E088
:1037E0000E4830400C4908390860FFF76DFE0A4862
:1037F000006800F0200030B900F09AF808B90027FE
:1038000002E0012700E00127FF2003491C31086086
:103810003846BDE8F0810000082800407F7F7F0027
:10382000CA21054A1160532111600349103908600B
:10383000FF2111607047000024280040F8B50446BD
:103840000D4617461E468DF802708DF801508DF812
:1038500000608DF8034069460020FFF715FFF8BDB2
:10386000F8B504460D4617461E468DF800408DF803
:1038700001508DF802708DF8036069460020FFF753
:1038800067FFF8BD7CB505460C46002000F098F8AF
:10389000284600F07DF82046FFF7C2FF4FF4804035
:1038A000FFF7DAFD4FF48000FEF71EF901218803CF
:1038B000FFF776FE012000F083F84FF480000090BF
:1038C00000208DF8040008208DF8050001208DF8F7
:1038D00006006846FEF70EF903200549087002202D
:1038E000487088700120C8700846FEF7BDFB7CBD9B
:1038F0005401002010B5FEF717FC4FF48060FFF76D
:1039000013FE01280AD18002FFF798FD07480068DE
:1039100008B9012000E00020044908604FF480004D
:10392000FEF7E2F8FEF712FC10BD000090024242E2
:1039300008B50022009200200021CA22134B1A6011
:1039400053221A60114A183A126822F0A0020F4B53
:10395000183B1A6000BF0D4A183A126802F02001A5
:10396000009A521C0092009AB2F5003F01D0002943
:10397000F1D0064A183A126802F020020AB101207A
:1039800000E00020FF22014B1A6008BD24280040FF
:10399000CA210A4A11605321116008491C3909687B
:1039A00021F00701054A1C3A1160114609680143DC
:1039B0001160FF21014A1160704700002428004077
:1039C00018B501460023009300220020CA23194C99
:1039D00023605323236049B1164B1C3B1B6843F4FF
:1039E0008063144C1C3C236001201FE0114B1C3BE6
:1039F0001B6823F480630F4C1C3C236000BF0D4BFD
:103A0000183B1B6803F00402009B5B1C0093009BA7
:103A1000B3F5803F01D0002AF1D0064B183B1B685C
:103A200003F004030BB9002000E00120FF23014C48
:103A3000236018BD2428004008B500220092044AE3
:103A40000092009A02EB80020092009A116008BD79
:103A5000502800407CB505460024002000900190CD
:103A600000260DB1022600E000262248006800F082
:103A7000007008B10E207CBD1F49098888B26946D4
:103A8000FEF782F804460CB12046F4E7019800F4F2
:103A9000802060B318480088000418490860372067
:103AA0004860402088600020C8604FF48060086152
:103AB000084600F09BF83720FDF734FE04460CB1B1
:103AC0002046D8E70D48066006200C494860402093
:103AD00088600020C8604FF480600861084600F0EC
:103AE00085F80620FDF71EFE04462046C3E7252084
:103AF000C1E70000142C01402C00002028260020E3
:103B00000149086070470000382C01400146034A13
:103B1000106820F0FF00084310607047042C01403B
:103B200000210B4B02681A601B1D42681A601A1DA7
:103B3000116821F0F701D0E902231A4303691A43FF
:103B400043691A431143024A08321160704700006A
:103B5000242C014001460020034A12680A400AB1A1
:103B6000012000E000207047342C0140024800682A
:103B700000F0030070470000002C014010B500F079
:103B80008BFC10BD00210A4A116847F6FF62914381
:103B9000027D83681A4343681A43C3681A43036863
:103BA0001A4303691A431143014A11607047000028
:103BB000042C014000200B490860091D0860091D04
:103BC0000860091D0860074924310860091D086064
:103BD000091D086004480349383108600020091DA8
:103BE00008607047002C0140FF07C0000021094B0E
:103BF00002681A601A1D11686FF30A01D0E90123E7
:103C00001A43C3681A4303691A431143014A121D38
:103C100011607047082C014001490860704700009E
:103C2000002C014070B590B004460E46154600BF0A
:103C30001A48FDF722FF0028FAD11848FDF766FE62
:103C40004FF0006001901648029003940495002004
:103C5000059006904FF480600790800008908000E7
:103C6000099000200A904FF440300B9004200C90F3
:103C700003200D904FF400000E9080100F9001A9CA
:103C80000648FDF705FF20210448FDF7EBFE012162
:103C90000248FDF72FFE10B070BD000058640240CE
:103CA000802C014070B50446002516480078032892
:103CB00002D12725284670BD1248007838B1114836
:103CC0000078012803D00F480078022817D1B4F5F6
:103CD000805F02D127252846EDE7E0B2FFF7BAFE64
:103CE000054665B90848006820F4C05006490860D8
:103CF00008460068204308600846006808602846B7
:103D0000D9E7000028000020042C0140F0B501464E
:103D100000200022BE4B1B7881F85630BD4B1B881B
:103D2000A1F85430BC4B1B681A0E93090B70C2F3F8
:103D300083034B7002F003038B70B74B1B68C3F314
:103D40000742CA70B44B1B88C3F307220A71B24BF7
:103D50001A784A715B681A0E1301CB80AE4B5B6810
:103D6000C3F30742CB8843EA1213CB8002F00F0360
:103D70000B72A94B9B88C3F30722D3094B72C2F382
:103D800080138B72C2F34013CB72C2F300130B7318
:103D900000234B739E4B1B783BB19D4B1B78012B33
:103DA00003D09B4B1B78032B4FD193071B0D0B614B
:103DB000994B1A790B6943EA82030B61964B9B6816
:103DC0001A0E0B6943EA92130B61C2F3C2030B751F
:103DD00002F007034B75904B9B68C3F307425309EE
:103DE0008B75C2F38203CB7593075B0F0B768A4BFF
:103DF0001B89C3F307220B7E43EAD2130B760B69B0
:103E00005B1C0024C1E912340B7E9B1C012404FAC4
:103E100003F3DC17D1E91256A5FB037C06FB03C3B1
:103E200005FB0433C1E912730C7A0123A3400B652F
:103E30000024D1E912650B6DA6FB037C05FB03C3CF
:103E400006FB0433C1E912732EE0714B1B78022B81
:103E50002AD1714B1A7993069B0A0B616E4B9B68B2
:103E60001A0E0B6943EA02230B616B4B9B68C3F389
:103E700007420B6913430B61674B1B89C3F307228E
:103E80000B695B1C4FF40074A3FB04464FF4806382
:103E90000025A4FB037C06FB03C304FB0533C1E937
:103EA00012734FF400730B65C2F3801301F8193FCE
:103EB00093065B0E4B70584B1A7A4B7843EAD21339
:103EC0004B7002F07F038B70534BDB681A0ED309E3
:103ED000CB70C2F341130B71C2F382034B71930792
:103EE0001B0F8B714C4BDB68C3F307428B7943EAA2
:103EF00092138B71C2F34013CB7100230B7202F04B
:103F000001034B72444B9B89C3F30722D3098B7285
:103F1000C2F38013CB72C2F340130B73C2F30013CE
:103F20004B73C2F381038B7302F00303CB733A4BE1
:103F30001A7B53080B7401234B74384B1B681A0E01
:103F4000CA741939354B1B68C3F307421402CC8578
:103F5000324B1B88C3F30722CB8D1343CB852F4BEA
:103F60001A7814060C635B681A0E0B6B43EA024462
:103F70000C632A4B5B68C3F307420B6B43EA0224D2
:103F80000C63264B9B88C3F307220B6B13430B6315
:103F9000224B1A7934235A54204B9B681A0E35232E
:103FA0005A541E4B9B68C3F3074214068C631B4B89
:103FB0001B89C3F307228B6B43EA02448C63174BC4
:103FC0001A7A8B6B43EA02248C63144BDB681A0E5B
:103FD0008B6B13438B63114BDB68C3F307423C23AA
:103FE0005B5C43EA12143C235C5413071C0DCC8722
:103FF0000A4B9B89C3F30722CB8F1343CB87074B15
:104000001A7B540840235C54012441235C54F0BDC6
:10401000280000202C0000205426002064260020C8
:104020003EB50024002501214448FFF7B3F80121E3
:10403000C802FFF7DFF80121C802FFF7EBF84FF4E1
:10404000F850019002208DF808008DF8090000203A
:104050008DF80A0001208DF80B0001A93848FDF702
:104060005DFE0420019001A93648FDF757FE0C22A1
:1040700008213348FDF79AFE0C2209213048FDF74C
:1040800095FE0C220A212E48FDF790FE0C220B21F2
:104090002B48FDF78BFE0C2211462948FDF786FEC2
:1040A0000C2202212748FDF781FE00214FF4006019
:1040B000FFF7B0F8FFF77EFD31208DF800000020FB
:1040C0008DF801008DF8020001208DF8030068468C
:1040D000FDF7CAFF00F0EEF8044614B900F038F816
:1040E00004461CB91848FFF711FE044634B91649B6
:1040F000B1F85410080400F073FD044624B94FF4DD
:104100000060FFF7CFFD04461CB11048007803287B
:1041100012D10D4890F8560020B10B4890F8560087
:10412000012801D1022500E000252846FFF7EEFC1A
:10413000002000F06DFD044620463EBD0C0040000E
:1041400000080240000C02407826002028000020D1
:1041500038B5002401200090FFF708FD10B9252490
:10416000204638BD4D480078042824D000204C4912
:10417000086002204860C02088600020C8604FF4BA
:10418000806008610846FFF731FDFDF7FDFA04463F
:104190000CB12046E5E743480068434908604148C0
:1041A000001D006848603F480830006888603D484E
:1041B0000C300068C8603948007858B1374800783A
:1041C000012807D035480078062803D03348007806
:1041D000022816D1002032490860032048604020A0
:1041E00088600020C8604FF4806008610846FFF7CF
:1041F000FDFC69460320FDF70DFB04460CB120468B
:10420000AFE726480078032816D1BDF80000000467
:104210002349086003204860402088600020C8606F
:104220004FF4806008610846FFF7E0FCFDF7ACFA48
:1042300004460CB1204694E71848007804282AD098
:10424000BDF8000019490860BDF8000000041449D9
:10425000086009204860C02088600020C8604FF4D2
:10426000806008610846FFF7C1FCFDF78DFA04463F
:104270000CB1204675E70B4800680D4908600948F5
:10428000001D0068486007480830006888600548DD
:104290000C300068C860002063E7000028000020A0
:1042A00028260020142C0140642600202C00002029
:1042B000542600202DE9F047002700240026002581
:1042C000A046A14676206E49087500200860486027
:1042D0008860C86008610846FFF754FC0320FFF7B8
:1042E0009BFC6848006840F480706649086000BF25
:1042F00012E000206449086048608860C8604FF49C
:10430000806008610846FFF771FCFDF7F3F9044689
:1043100004B903E0781CC7B24A2FEADB00BF14B12E
:104320002046BDE8F0874FF4D57057490860082053
:104330004860402088600020C8604FF480600861B9
:104340000846FFF753FCFDF7AFFA044624B90120F5
:104350004E4908704FF0804900204B4908603720D3
:104360004860402088600020C8604FF48060086189
:104370000846FFF73BFC3720FDF7D4F90446002C34
:104380004CD135E00020404908603720486040208B
:1043900088600020C8604FF4806008610846FFF71D
:1043A00025FC3720FDF7BEF904460CB12046B8E7DE
:1043B000374849EA00003449086029204860402015
:1043C00088600020C8604FF4806008610846FFF7ED
:1043D0000DFCFDF703FA04460CB12046A1E729487D
:1043E00010300668012080EAD67080F001086D1C4C
:1043F000B8F1000F03D14FF6FF708542C2D34FF6DC
:10440000FF70854202D31B2420468AE706F08040D5
:10441000060033D002201D4908702FE01DE01D4822
:104420001949086001204860402088600020C86069
:104430004FF4806008610846FFF7D8FBFDF7CEF91E
:1044400004460CB120466CE70E4810300668012087
:1044500080EAD67080F001086D1CB8F1000F03D11E
:104460004FF6FF708542DAD34FF6FF70854202D3D4
:104470001B24204655E7032004490870204650E7D6
:1044800010260020042C01402826002028000020AF
:10449000000010800080FF8010B54FF48070FFF79F
:1044A00059FB78B34C480078012814D100204B49BF
:1044B00008600C204860402088600020C8604FF4ED
:1044C000806008610846FFF791FB0C20FDF72AF990
:1044D0004349087002E000204149087041480068E3
:1044E00040F480703F490860081D00684CF23A3182
:1044F00088433C49091D086001203B490870384841
:10450000007810BDFFE70220FFF724FB78B10220FE
:10451000FFF7F6FA3348001D00684CF23A31884341
:104520003049091D086002202D490870E9E708207C
:10453000FFF710FB78B10820FFF7E2FA2948001DC9
:1045400000684CF23A3188432649091D086004206E
:1045500023490870D5E72020FFF7FCFA78B1202026
:10456000FFF7CEFA1F48001D00684CF23A3188432D
:104570001C49091D0860062019490870C1E7102070
:10458000FFF7E8FA78B11020FFF7BAFA1548001DD6
:1045900000684CF23A3188431249091D0860052031
:1045A0000F490870ADE74FF40070FFF7D3FA80B100
:1045B0004FF40070FFF7A4FA0A48001D00684CF29F
:1045C0003A3188430749091D0860072004490870EB
:1045D00097E7002095E70000310000202826002002
:1045E00032000020382C0140330000202DE9F84F24
:1045F0008146174698460A9C4FF0000AD3464D461E
:104600004FF0FF36B9F1000F02D12620BDE8F88F38
:1046100000208649086086480078022805D10402F7
:10462000780A40EAC8574FEA682800208149886024
:104630004860401E0860012048610020C860086191
:104640000846FFF76DFA79481838006800F00070E6
:1046500008B10E20DAE7002C21DDB4F5006F1EDC76
:10466000601E2040D8B9204602F014FB009072482A
:104670000460102070494860402088600020C860B5
:104680004FF4806008610846FFF7B0FA1020FDF78C
:1046900049F88246BAF1000F03D05046B6E726200B
:1046A000B4E70098000163498860084644604FF011
:1046B000FF300860012048610220C86000200861C6
:1046C0000846FFF72DFA5C48076011205A494860F8
:1046D000402088600020C8604FF480600861084670
:1046E000FFF784FA1120FDF71DF88246BAF1000F9A
:1046F00001D050468AE75148007800285CD1FBF78A
:10470000CAFD18E04FF40040FFF724FA78B14FF0EB
:10471000000B06E045485430006845F82B000BF1CB
:10472000010BBBF1080FF5D32035454E03E00EB960
:1047300004206BE7761E3D480830006840F22A618D
:1047400008400028DED00820FFF704FA20B1082036
:10475000FFF7D6F9042059E70220FFF7FBF920B153
:104760000220FFF7CDF9022050E72020FFF7F2F9F1
:1047700020B12020FFF7C4F9062047E74FF400706E
:10478000FFF7E8F928B14FF40070FFF7B9F90720F7
:104790003CE704E025485430006828602D1D4FF4A4
:1047A0000010FFF7D7F90028F4D1FBF776FD40F2AF
:1047B000FF50FFF7A5F936E020480078012832D1F4
:1047C00000202049087020490870204908701748C7
:1047D0001030006840F22A31084314491031086053
:1047E0001248006840F00800104908600022214685
:1047F0004846FFF717FA00E0761E1548006800F0FB
:10480000006038B91148007820B90E48007808B91E
:10481000002EF1D10EB90420F8E60A48007810B154
:10482000084890F800A05046F0E600002C2C01400B
:10483000280000203C2600202826002030000020F0
:10484000FFFF7F00320000203100002033000020F5
:10485000006402402DE9FE4F83460C46914600203D
:104860000290002625462C46700240EAD5566D027D
:104870000BF00300F0B14FF0000A18E04FF40070A5
:1048800000904FEA4A20471946EBE0733A46164833
:10489000FFF7ACFE02904FF4007213495846FBF745
:1048A000FBFF0BF5007B0AF1010000F0FF0ACA458F
:1048B000E4DB16E0B9F1010F09D14FF400702A468C
:1048C000334600905846FFF791FE029009E04FF4FE
:1048D00000702A463346CDE90009584600F006F834
:1048E00002900298BDE8FE8FD02600202DE9FF5FE0
:1048F00017469846DDE90E464FF00009CA464FF0CC
:10490000FF35AC49009808600020AB490860AB480F
:104910000078022805D10402780A40EAC8574FEA15
:1049200068280020A64988604860401E0860012071
:1049300048610020C86008610846FFF7F1F89E480A
:104940001838006800F0007018B10E2004B0BDE8FF
:10495000F09F002C21DDB4F5006F1EDC601E2040AE
:10496000D8B9204602F096F9834696480460102094
:1049700094494860402088600020C8604FF48060FF
:1049800008610846FFF732F91020FCF7CBFE81469C
:10499000B9F1000F03D04846D8E72620D6E7012E0C
:1049A00071D906FB04F0B0F1007F01D32620CDE7DA
:1049B0004FEA0B108249886006FB04F048604FF014
:1049C000FF300860012048610220C86000200861B3
:1049D0000846FFF7A5F87B48076012207949486030
:1049E000402088600020C8604FF48060086108465D
:1049F000FFF7FCF81220FCF795FE8146B9F1000F95
:104A000001D04846A2E77048007800287ED1FBF725
:104A100042FC1EE04FF40040FFF79CF8A8B14FF0B5
:104A2000000A08E06448543000686249096841F8A7
:104A30002A000AF1010ABAF1080FF3D35D480068B1
:104A400020305C490860614D03E00DB904207DE72A
:104A50006D1E59480830006840F22A31084000288D
:104A6000D8D00820FFF776F820B10820FFF748F8E3
:104A700004206BE70220FFF76DF828B10220FFF752
:104A80003FF8022062E792E02020FFF763F820B1B0
:104A90002020FFF735F8062058E74FF40070FFF7A5
:104AA00059F828B14FF40070FFF72AF807204DE7B6
:104AB0000AE04148543000683E49096808603D48B2
:104AC0000068001D3B4908604FF40010FFF742F8F2
:104AD0000028EED14FF48070FFF73CF820B3374840
:104AE000007838B135480078012803D03348007881
:104AF000022819D10020334908600C20486040206A
:104B000088600020C8604FF4806000E013E0086116
:104B10000846FFF76BF80C20FCF704FE8146B9F15C
:104B2000000F01D0484611E7FBF7B7FB40F2FF50FA
:104B3000FEF7E6FF3BE024480078012837D100204B
:104B40002349087001202349087000202249087079
:104B500019481030006840F22A31084316491031D4
:104B600008601548006840F008001349086006FB1B
:104B700004F100220098FFF755F800E06D1E174879
:104B8000006800F0006008B9002DF7D10DB90420CD
:104B9000DCE600BF1048007818B90D4800780028FE
:104BA000F8D00B48007810B1094890F800904846BA
:104BB000CCE60000340000202C2C0140280000200E
:104BC0003C2600202826002030000020FFFF7F0028
:104BD0003200002031000020330000200064024039
:104BE00010B5044609480460072008494860402081
:104BF00088600020C8604FF4806008610846FEF7B6
:104C0000F5FF0720FCF78EFD10BD000028260020D0
:104C100001460020012900D011B9024B197000E0B3
:104C200026207047300000202DE9FF5F86B0174630
:104C30009846149D0026002005900490002481468B
:104C40000390824602900195DDF818B0DDF818B0A7
:104C5000BBF1000F03D126200AB0BDE8F09F002071
:104C6000C9490860C94988604860401E0860012041
:104C700048610020C86008610846FEF751FFC2483D
:104C80001838006800F0007008B10E20E4E7C04852
:104C90000078022805D10502780A40EAC8574FEA91
:104CA0006828002D1FDDB5F5006F1CDC681E28404C
:104CB000C8B9284601F0EEFF0590B64805601020FF
:104CC000B4494860402088600020C8604FF480608C
:104CD00008610846FEF78AFF1020FCF723FD064610
:104CE0001EB13046B8E72620B6E7AB48008800047E
:104CF000A84908600D204860402088600020C860F6
:104D00004FF4806008610846FEF770FF0D20FCF745
:104D100009FD06460EB130469EE79B4818380068EC
:104D200003904FF0FF341CE0641E9B480088000491
:104D3000984908600D204860402088600020C860C5
:104D40004FF4806008610846FEF750FF0D20FCF725
:104D5000E9FC06460EB130467EE78B4818380068FD
:104D60000390039800F4807008B9002CDCD10CB9D2
:104D7000292071E78748076018208649486040204D
:104D800088600020C8604FF4806008610846FEF724
:104D90002DFF1820FCF7C6FC06460EB130465BE737
:104DA00000207E490870059800017849886008460F
:104DB00045604FF0FF300860012048610020C86066
:104DC00008610846FEF7ACFE4FF0FF3474480078E7
:104DD00000287ED1FBF75FFA45E04FF48040FEF7F4
:104DE000B9FED8B30198A0EB0900202822D201987F
:104DF000A0EB090000F0030020B90198A0EB090026
:104E0000800804E00198A0EB09008008401C029093
:104E10004FF0000A0AE05C495431DBF800000860FA
:104E20000AF1010A0BF1040B09F104090298824509
:104E3000F1D310E04FF0000A06E05BF82A00524977
:104E4000543108600AF1010ABAF1080FF5D30BF1E9
:104E5000200B09F120096FF0404404E0FFE70CB992
:104E60000420F9E6641E48480830006840F21A61E0
:104E700008400028B1D00820FEF76CFE20B10820C1
:104E8000FEF73EFE0420E7E60220FEF763FE20B1B7
:104E90000220FEF735FE0220DEE61020FEF75AFE65
:104EA00020B11020FEF72CFE0520D5E64FF400704F
:104EB000FEF750FE30B14FF40070FEF721FE0720E0
:104EC000CAE606E0FBF7E9F940F2FF50FEF718FEEC
:104ED00041E03348007801283DD100203149087075
:104EE0002E4908703049087027481030006840F299
:104EF0001A31084324491031086040222946069897
:104F0000FEF790FE2048006840F008001E49086047
:104F100000E0641E2548006800F0006008B9002C1D
:104F2000F7D11CB9FFF77CF8042095E64FF0FF3469
:104F300000E0641E1C48007820B91A48007808B9BF
:104F4000002CF6D10CB9042086E61648007810B182
:104F50001448007880E640F2FF50FEF7D1FD04A827
:104F6000FCF79AFF064603E004A8FCF795FF064607
:104F70003EB99DF810000728F6D09DF810000628CD
:104F8000F2D0304668E600002C2C01403C26002080
:104F900028000020282600202C00002031000020BE
:104FA0003000002032000020330000200064024066
:104FB0002DE9FE4F81460C469246002002900026C5
:104FC00025462C46700240EAD5566D0209F00300D2
:104FD000F0B14FF0000B18E04FF400724946194849
:104FE000FBF75AFC4FF4007000904FEA4B20471932
:104FF00046EBE0733A461348FFF716FE029009F5B8
:1050000000790BF1010000F0FF0BD345E4DB16E063
:10501000BAF1010F09D14FF400702A4633460090CF
:105020004846FFF701FE029009E04FF400702A465F
:105030003346CDE9000A484600F006F8029002988F
:10504000BDE8FE8FD02600202DE9FF5F84B0DDE9AA
:1050500012470026002003900290002580468146DA
:10506000019007FB04FBDDF810A0DDF810A0BAF1F9
:10507000000F03D1262008B0BDE8F09F0020DC49D6
:105080000860DC4988604860401E08600120486173
:105090000020C86008610846FEF742FDD448183871
:1050A000006800F0007008B10E20E4E7D2480078F4
:1050B000022808D10402DDE90601400A40EAC15095
:1050C0004912CDE90601002C1FDDB4F5006F1CDC90
:1050D000601E2040C8B9204601F0DCFD0390C7489F
:1050E00004601020C5494860402088600020C860E6
:1050F0004FF4806008610846FEF778FD1020FCF749
:1051000011FB06461EB13046B5E72620B3E7012F56
:105110006FD907FB04F0B0F1007F01D32620AAE786
:10512000B548007838B1B4480078012803D0B248B7
:10513000007802282DD1B24800880004AF490860E9
:1051400037204860402088600020C8604FF48060AD
:1051500008610846FEF74AFD3720FCF7E3FA0646E9
:105160000EB1304687E7A54807601720A34948607D
:10517000402088600020C8604FF4806008610846C5
:10518000FEF734FD1720FCF7CDFA06460EB1304687
:1051900071E79A49069808601920486040208860A5
:1051A0000020C8604FF4806008610846FEF71EFDCD
:1051B0001920FCF7B7FA06460EB130465BE70398B4
:1051C00000018C49886007FB04F048604FF0FF3015
:1051D0000860012048610020C86008610846FEF7A9
:1051E0009FFC88480078002874D1451EFBF753F8CF
:1051F00042E0E4E04FF48040FEF7ACFCB8B3ABEB28
:10520000080020281FD2ABEB080000F0030018B9FB
:10521000ABEB0800800803E0ABEB08008008401C03
:1052200001904FF000090AE071495431DAF80000AA
:10523000086009F101090AF1040A08F1040801985B
:105240008145F1D310E04FF0000906E05AF829003B
:1052500067495431086009F10109B9F1080FF5D324
:105260000AF1200A08F120086FF0404504E0FFE74A
:105270000DB90420FFE66D1E5D480830006840F25D
:105280001A3108400028B5D00820FEF763FC20B191
:105290000820FEF735FC0420EDE60220FEF75AFC5C
:1052A00020B10220FEF72CFC0220E4E61020FEF7DD
:1052B00051FC20B11020FEF723FC0520DBE64FF463
:1052C0000070FEF747FC30B14FF40070FEF718FC99
:1052D0000720D0E62CE04FF48070FEF73BFC00B3D3
:1052E0004548007838B144480078012803D0424846
:1052F0000078022815D10020404908600C20486041
:10530000402088600020C8604FF480600861084633
:10531000FEF76CFC0C20FCF705FA06460EB1304691
:10532000A9E6FAF7BAFF40F2FF50FEF7E9FB46E0C4
:1053300034480078012842D1002033490870012008
:10534000324908700020324908702948103000683E
:1053500040F21A31084326491031086007FB04F176
:1053600040220498FEF75EFC2148006840F00800E7
:105370001F4908604FF0FF3500E06D1E25480068AA
:1053800000F0006008B9002DF7D11DB9FEF748FE06
:10539000042070E64FF0FF3500E06D1E1C480078D9
:1053A00020B91948007808B9002DF6D10DB90420AC
:1053B00061E61548007810B1134800785BE640F2CA
:1053C000FF50FEF79DFB02A8FCF766FD064603E0D2
:1053D00002A8FCF761FD06463EB99DF808000728C3
:1053E000F6D09DF808000628F2D0304643E60000CB
:1053F0002C2C01403C2600202800002028260020DC
:105400002C0000203000002032000020310000205D
:10541000330000200064024000B587B00121084637
:10542000FDF7B8FE01210803FDF7E4FE0820059012
:1054300002208DF8180000208DF81A0003208DF846
:10544000190001208DF81B0005A92448FCF766FC13
:105450003020059005A92148FCF760FC05220321B6
:105460001E48FCF7A3FC052204211C48FCF79EFC07
:10547000052211461948FCF799FC08211748FCF74A
:10548000B8FC30211548FCF7B4FC0020ADF8000052
:105490004FF48270ADF802000020ADF80400022045
:1054A000ADF806000120ADF808004002ADF80A0092
:1054B0001820ADF80C000020ADF80E000720ADF864
:1054C00010006946064800F065F80121044800F024
:1054D00047F8FF2000F006F807B000BD00040240C6
:1054E0000030014070B50546002400BF022111487C
:1054F00000F042F80028F9D0601CC4B2C82C01DDCD
:10550000002070BD29460B4800F042F8002400BF7F
:105510000121084800F030F80028F9D0601CC4B21E
:10552000C82C01DD0020ECE7024800F02EF8C0B2E4
:10553000E7E700000030014010B504460748008846
:105540004FF6C77108400549088008460088204387
:1055500008800121014800F003F810BD003001402F
:1055600021B1028842F04002028004E002884FF636
:10557000BF731A40028070470246002013890B4017
:105580000BB1012000E00020704701468889704778
:105590008181704710B50022028802F441520B88C5
:1055A0004C8823438C882343CC8823430C89234392
:1055B0004C8923438C892343CC8923431A4302809B
:1055C000838B4FF2FF74234083830B8A038210BDC9
:1055D0000CB50020019000903448006840F4803001
:1055E0003249086000BF3148006800F40030009084
:1055F0000198401C0190009818B90198B0F5A04F8F
:10560000F1D12A48006800F4003010B10120009068
:1056100001E0002000900098012846D12348403046
:10562000006840F0805021494031086020480068FF
:1056300040F440401E4908601C48083000681B497F
:10564000083108600846006840F4004008600846D9
:10565000006840F4A05008601648091F0860081F41
:10566000006840F08070091F086000BF0F480068A4
:1056700000F000700028F9D040F205700E49086073
:105680000A480830006820F0030008490831086023
:105690000846006840F00200086000BF0348083078
:1056A000006800F00C000828F8D10CBD003802405A
:1056B0000070004008544007003C0240012080F385
:1056C000138800BF00BFBFF34F8F0748006800F486
:1056D000E06006490843001D03490860BFF34F8F8F
:1056E00000BF00BFFEE700000CED00E00000FA057F
:1056F000042808D14FF0E021096941F004014FF07E
:10570000E022116107E04FF0E021096921F0040176
:105710004FF0E0221161704710B50548007801286C
:1057200005D1FCF701FDFDF771F9FCF70FFD10BD88
:10573000C601002010B51548006840F470001349F8
:1057400008601348006840F001001149086000201B
:105750000F49083108600E4800680E4908400C499E
:1057600008600D48091D0860081F006820F48020AB
:10577000091F0860002006490C310860FFF728FF68
:105780004FF0006001498039086010BD88ED00E0ED
:1057900000380240FFFFF6FE10300024F0B50C4642
:1057A000154600210022068C4FF6FE773E40068407
:1057B000018B028C4FF60C7631407E1C06EA0316F4
:1057C0002E4331434FF6F576324044F00106324322
:1057D00001830284F0BDF0B50C461546002100227D
:1057E0000026078C4FF6EF7C07EA0C070784018B35
:1057F000028C4FF6FF7707EA041640F6FF47394060
:105800004FF6FF7707EA033739434FF6FF7707EA8A
:10581000052739434FF65F773A4046F010073A4381
:1058200001830284F0BDF0B50C461546002100222C
:105830000026078C4FF6FF6C07EA0C070784818B64
:10584000028C4FF6FF7707EA04264FF60C773940B3
:105850004FF6FF7707EA03172F4339434FF2FF57FD
:105860003A4046F480773A4381830284F0BDF0B534
:105870000C461546002100220026078C4EF6FF7CC0
:1058800007EA0C070784818B028C4FF6FF7707EA43
:10589000043640F6FF4739404FF6FF7707EA052701
:1058A00039434FF6FF7707EA0337394345F6FF7769
:1058B0003A4046F480573A4381830284F0BD0000A9
:1058C00010B50121034800F067FB0921014800F0F1
:1058D0002DFB10BD0004004030B585B004460D46D8
:1058E00001210846FDF756FC01210846FDF762FC40
:1058F00002208DF8100000208DF812000120039086
:105900008DF8130003208DF8110003A91748FCF748
:1059100005FA012200211548FCF748FA0020ADF8ED
:105920000800ADF80200401E01900020ADF8000014
:105930008DF80A0069464FF0804000F0CBFB7021E3
:105940004FF0804000F079FB0723002211464FF012
:10595000804000F0FAFA00214FF0804000F08BFB0D
:105960000121880700F0E5FA05B030BD00000240D3
:1059700010B5FCF7D9FB01211B4800F00DFB0128F5
:105980002FD100241948008810B31848008840F42B
:1059900000401649088000200988C1F30E01144A0E
:1059A000505410460078A3280ED110464078A42801
:1059B0000AD10E480088C0F30E01104602F0F6FE30
:1059C00000200A49088003E009490AA0FAF712FDFD
:1059D0000121054800F0AAFA0021034800F0A9FAC5
:1059E00000BFFCF7B3FB10BD0004004058010020CD
:1059F000102F0020484330382041542041434B3A77
:105A00002025730A000000007FB505460C460121E1
:105A10000220FDF7CFFB0295ADF804400020ADF861
:105A20000600ADF80C0001A90D4800F053FB01225F
:105A300011460B4800F0F8FA0121094800F079FA04
:105A40001D208DF8000002208DF8010000208DF847
:105A5000020001208DF803006846FCF705FB7FBDBE
:105A60000004004010B50121264800F095FAE0B18D
:105A700025480068401C24490860084600684FF427
:105A80007A714843214908604FF0804000F081FA64
:105A90001F490860084600681E490968401A1E49E7
:105AA00008601B4800681B4908600821154800F081
:105AB00073FA08B3134800F069FA0A21B0FBF1F059
:105AC0001649086011480068096808440F490860D1
:105AD0000846006812490968401A0C4908600F48D6
